:1000000033C0000044C0000042C0000040C00000F7
:100010003EC000003CC000003AC0000038C00000F4
:1000200036C0000034C0000032C0000030C0000004
:100030002EC000002CC000002AC0000028C0000014
:1000400026C0000024C0000022C0000020C0000024
:100050001EC000001CC000001AC0000018C0000034
:1000600016C0000014C0000011241FBECFEFD8E05E
:10007000DEBFCDBF11E0A0E0B1E0E6EBFCE002C0E6
:1000800005900D92A230B107D9F729D512C6B8CF85
:10009000BF92CF92DF92D901E4E3F8E30F921F926F
:1000A000D72EC62EB82E242F1B2E0A2E09952131AD
:1000B000F9F71F900F90DF90CF90BF900895BF92F7
:1000C000CF92DF92D901E4E3FFE30F921F92D72E84
:1000D000C62EB82E242F1B2E0A2E09952131F9F792
:1000E0001F900F90DF90CF90BF900895CF93DF9334
:1000F000FA01E9012138310510F0C0E8D0E0AB0188
:10010000BC0140789E01CF01E1D4CE01DF91CF91B7
:1001100008952F923F924F925F926F927F928F92AB
:100120009F92AF92BF92CF92DF92EF92FF920F9386
:100130001F93CF93DF934A01E9012138310510F075
:10014000C0E8D0E01E01369427946B017C0120E8C2
:10015000C222D40180E090E060E070E08215930557
:10016000B9F0F601E819F909EA0FFB1F259134915E
:100170004D915D912417350709F071E04095509538
:10018000422B532B4F3F5F4F09F061E00196E6CFC2
:10019000772351F1662339F020E030E043E0C701D6
:1001A000B601F801099526013701A12CB12CA21442
:1001B000B30491F0F401219131914F0141E0C30169
:1001C000B201F8010995F2E04F0E511C611C711C3F
:1001D0002FEFA21AB20AEBCF20E030E045E0C701D2
:1001E000B601F801099502C0C0E0D0E0CE01DF9170
:1001F000CF911F910F91FF90EF90DF90CF90BF9024
:10020000AF909F908F907F906F905F904F903F90B6
:100210002F9008956BC00000AAC000008EC000009F
:100220008CC000008AC0000088C0000086C00000AA
:1002300084C0000082C0000080C000007EC00000BA
:100240007CC000007AC0000078C0000076C00000CA
:1002500074C0000072C0000070C000006EC00000DA
:100260006CC000006AC0000068C0000066C00000EA
:1002700064C0000062C0000060C00000EC2DFD2DD5
:10028000B7B6B0FCFDCF27BFE895B7B6B0FCFDCF41
:1002900021E1B7B6B6FCF4CF0895090212000101BE
:1002A000008032090400000000000000120110016B
:1002B000FF000008C016DC050201010200010E0368
:1002C0005500530042006100730070001C0377006A
:1002D000770077002E0066006900730063006800F5
:1002E0006C002E00640065000403090411241FBE85
:1002F000CFEFD8E0DEBFCDBF24B7D8E0CEEF399145
:100300003833399109F03FEF30933F0120933E019C
:1003100011E0A0E0B1E0E2EBF8E702C005900D9239
:10032000A630B107D9F711E0A6E0B1E001C01D92F7
:10033000AE33B107E1F777D1C4C36CCFA82FB92F83
:1003400080E090E041E050EA609530E009C02D91F6
:1003500082279795879510F084279527305EC8F3FC
:100360006F5FA8F30895EADF8D939D930895CF936F
:10037000CFB7CF93DF93C3954C9BE9F74C9B0BC052
:100380004C9B09C04C9B07C04C9B05C04C9B03C0B9
:100390004C9B01C089C06F93C0912101DD27C85DCE
:1003A000DE4F2F9365E54C9B03C02F916F91E6CFF5
:1003B0000F931F934F9320E040E15F9309B10471C5
:1003C00004FB27F93F9350E03BE039C014714064CF
:1003D0002F77012F5F5F1EC0406819B114712F770E
:1003E00052501FC0406409B12F770471D1F15F5F93
:1003F00000C023C0406219B12F77147191F15F5F83
:1004000000C025C004711027515012F45D5F000038
:10041000115027952C3F19B1C8F6147101270150CE
:1004200027952C3FC8F64227499309B1047110273C
:100430004F73115027952C3FA8F64695469519B154
:10044000147179F00127015027952C3F98F66B5ACB
:1004500060F3315009B1B0F600C011E01CBB0027B9
:1004600017C03B503195C31BD04011E01CBB088125
:10047000033CF9F00B34E9F020911F011981110FB1
:100480001213EDCF093651F10D3211F0013E39F75B
:10049000009326013F915F914F911F910F912F91F2
:1004A0006F91CCB3C0FD67CFDF91CF91CFBFCF911C
:1004B000189520912601222369F31091240111231C
:1004C00039F534303AF13093240120932001109112
:1004D00021013BE0311B309321011CC0009124011C
:1004E0000130B4F40AE53091010134FD14C00093E9
:1004F0000101C4E1D1E013C0052710E000C00000F5
:100500000BB91AC0052710E0221F1DC010E021C042
:100510004AE502C032ED432FC4E1D0E032E01AB127
:1005200014615C9A0BB11AB954E120E865E320FF2D
:1005300005270BB9279517951C3FF0F66695B8F778
:10054000B1F720FF05270BB9279517951C3FD0F66B
:100550002795179517FF052700001C3F0BB9B0F62C
:1005600029913A9519F70B7E10912501110FC6516B
:10057000D0400BB911F010931F0111E01CBB0061BA
:100580001AB11B7E402F4B7E54E05A95F1F70BB900
:100590001AB94BB97FCFFC013381932F4481842F4B
:1005A0002281203339F44370E42FF0E0EE5FFE4FF8
:1005B00080810895283529F431110EC0E1E0F0E082
:1005C00006C0203599F431110CC0E0E0F0E089E07C
:1005D0008093570084910895383019F5E3E0F0E0F6
:1005E000F6CF3830F1F4E2E0F0E0F1CF203221F440
:1005F000FC01EE0FFF1F06C0283231F4FC01EE0FA4
:10060000FF1F319684910895203A09F444C2203C9A
:1006100019F4658148D205C02F3F19F481EF80930A
:10062000110180E0089580E1809312011AB880E8FA
:100630008BB981E085BF82E085BFE0E0F1E7A89556
:1006400031978040E1F74F9902C08CEF01C08EEFE7
:100650008093110114BE88E10FB6F8948093600076
:10066000109260000FBE80916900826080936900E3
:10067000E89A549A8CE0E0E0F5E3A8953197804041
:10068000E1F754987894809111018E3011F080E157
:100690000CC00F5F1F4F0115110579F480911201F5
:1006A000882331F08091120181508093120105C09E
:1006B00080911101817F80931101809124018350E9
:1006C00087FD47C190912101CCE0D0E0C91BD10941
:1006D000C85DDE4F909120019D3209F0B9C088308D
:1006E00009F035C183EC809314018AE58093010100
:1006F000109213014881842F807639818823B9F1C3
:1007000086E091E09093230180932201333031F40D
:10071000CE0141DF8093090124E090C0353019F10A
:100720003A3009F18CEF830F863098F48A819B81EF
:100730009093100180930F013930B9F08E8180932E
:100740000E018D81827080930D0130930C012FEF8B
:100750006FC080911101323011F48C7F01C0816033
:100760008093110102C021E069C020E067C08A8146
:1007700010921D01311106C010921E018DE191E011
:1007800022E050C0353019F4809325013DC0363049
:10079000A9F59B81913019F488E990E704C0923063
:1007A00041F486E890E7909323018093220122E1AF
:1007B00021C09330F1F4811108C084ED90E790934B
:1007C00023018093220124E015C0813041F488EB9D
:1007D00090E790932301809322012CE10BC082309B
:1007E00041F48AEA90E790932301809322012EE05E
:1007F00001C020E080E48093130118C0383079F004
:10080000393031F4809327018DE191E020E00AC076
:1008100021E03A3009F020E08DE191E003C087E269
:1008200091E021E090932301809322012F3F31F446
:1008300047FD2E8180E88093130107C08F818111CD
:1008400004C08E81821708F4282F209300017FC0F6
:100850009091130197FF7BC090910E01C82E9817BD
:1008600008F4C92E9C1990930E01BB24B3949111E6
:10087000B12CD12CDC1408F067C020910C018091C0
:100880000F0190911001273080F07E012FEFE21AC6
:10089000F20A68819C012F5F3F4F30931001209333
:1008A0000F0101D1D394E701E5CF8115904708F0FE
:1008B0004CC0D394D394F894E0910F01F0911001BF
:1008C0008991999121E00C0120935700E89511241A
:1008D000789480910F0190911001029690931001ED
:1008E00080930F018F779927892B59F0BB2009F44A
:1008F000C1CFDC1408F4BECF80910D01882309F428
:10090000B9CFF894E0910F01F0911001329783E094
:1009100080935700E895789407B600FCFDCFF894D3
:10092000E0910F01F0911001329785E0809357001C
:10093000E895789407B600FCFDCFF89481E18093A8
:100940005700E895789496CFB1101092000110925C
:1009500024018091010184FF6DC0809100018F3FCF
:1009600009F468C0D82E893010F028E0D22E8D19F5
:10097000809300018091140198E8892780931401E5
:10098000DD2009F44AC08091130187FF28C08091BF
:100990000E018D1508F4D82E8D1980930E01C0908C
:1009A0000C01C5E1D1E085E191E02C2F281B2D152C
:1009B000A0F5E0900F01F0901001F6E0FC1518F49E
:1009C000C70169D002C0F701849188832196FFEFA7
:1009D000EF1AFF0AF0921001E0920F01E4CFE091CC
:1009E0002201F091230186FF0BC085E191E0DC013B
:1009F00024912D9331962D2D280F2A13F9CF09C05C
:100A000085E191E0DC0121912D932D2D280F2A13F2
:100A1000FACFF0932301E09322016D2D85E191E05F
:100A2000A2DC84E08D0D8C3019F09FEF90930001D3
:100A30008093010184E199B1947131F48150D9F727
:100A40001092250110921F0180911101803130F028
:100A50004F9B0FC080911101805109C04F9909C06F
:100A600080911101823028F0809111018250809391
:100A7000110180911101811106CEF894549A1BB88E
:100A80001DBA1092690081E085BF15BEE0910A0190
:100A9000F0910B010995F999FECF92BD81BDF89AAD
:100AA000992780B50895262FF999FECF1FBA92BDD8
:100AB00081BD20BD0FB6F894FA9AF99A0FBE01963F
:100AC0000895F894FFCFFF5A1E950F00FA01DC013C
:100AD00002C005900D9221503040D8F70895AF9292
:100AE000BF92CF92DF92EF92FF920F931F93CF931B
:100AF000DF93CDB7DEB7C058D1090FB6F894DEBF8B
:100B00000FBECDBF14BE88E10FB6F894809360008D
:100B1000109260000FBEF89419822091000130916C
:100B2000010180E090E0F901E80FF91F65917491EF
:100B3000FC01F059459154916417750719F081E053
:100B4000898305C00296883B48E0940761F7898154
:100B5000882309F493C058E6C52E50E7D52EE12C22
:100B6000F12CB701A601407820E830E0CE010196D3
:100B7000ADDFC701B6016856724F8F4F9F4F08E433
:100B800010E020E830E0AE014F5F5F4FC2DA80E84E
:100B9000C80ED11CE11CF11C48E6C41642E7D4067D
:100BA000E104F104F1F6C12C40E7D42EE12CF12C44
:100BB000560180E7B81A40E850E06FEF70E0CE01D0
:100BC000019670D040910001509101014A0D5B1DCA
:100BD000662757FD6095762F20E830E0CE0101961C
:100BE00075DF0FE510E020E830E0AE014F5F5F4FAA
:100BF000C701B6018EDA40E8C40ED11CE11CF11C1D
:100C0000C11483E7D806E104F10491F638EBE32E32
:100C100038E0F32EEA18FB0840E850E06FEF70E090
:100C2000CE0101963FD0970141E8E416F10410F09F
:100C300020E830E040910001509101014A0D5B1D18
:100C4000662757FD6095762FCE0101963FDFB501EF
:100C5000705980E090E008E410E020E830E0AE0158
:100C60004F5F5F4F56DA80E8A80EB11C40E8E41AE7
:100C7000F10888EBA81688E0B80670F280E090E0F2
:100C8000C058DF4F0FB6F894DEBF0FBECDBFDF9167
:100C9000CF911F910F91FF90EF90DF90CF90BF9079
:100CA000AF900895DC0101C06D9341505040E0F7D2
:060CB0000895F894FFCF47
:020CB600140226
:00000001FF
