:107000006BC00000AAC000008EC000008CC0000051
:107010008AC0000088C0000086C0000084C0000054
:1070200082C0000080C000007EC000007CC0000064
:107030007AC0000078C0000076C0000074C0000074
:1070400072C0000070C000006EC000006CC0000084
:107050006AC0000068C0000066C0000064C0000094
:1070600062C0000060C00000EC2DFD2DB7B6B0FC82
:10707000FDCF27BFE895B7B6B0FCFDCF21E1B7B68D
:10708000B6FCF4CF08950902120001010080320914
:10709000040000000000000012011001FF000008C1
:1070A000C016DC050201010200010E035500530069
:1070B00042006100730070001C03770077007700C6
:1070C0002E00660069007300630068006C002E00EB
:1070D000640065000403090411241FBECFEFD8E04B
:1070E000DEBFCDBF24B7D8E0CEEF39913833399128
:1070F00009F03FEF30933E0120933D0111E0A0E005
:10710000B1E0E2E8F8E702C005900D92A630B107C1
:10711000D9F711E0A6E0B1E001C01D92AD33B1078F
:10712000E1F777D1ACC36CCFA82FB92F80E090E006
:1071300041E050EA609530E009C02D918227979593
:10714000879510F084279527305EC8F36F5FA8F30A
:107150000895EADF8D939D930895CF93CFB7CF9392
:10716000DF93C3954C9BE9F74C9B0BC04C9B09C02C
:107170004C9B07C04C9B05C04C9B03C04C9B01C063
:1071800089C06F93C0912001DD27C95DDE4F2F9329
:1071900065E54C9B03C02F916F91E6CF0F931F9332
:1071A0004F9320E040E15F9309B1047104FB27F99C
:1071B0003F9350E03BE039C0147140642F77012FBA
:1071C0005F5F1EC0406819B114712F7752501FC005
:1071D000406409B12F770471D1F15F5F00C023C013
:1071E000406219B12F77147191F15F5F00C025C023
:1071F00004711027515012F45D5F00001150279563
:107200002C3F19B1C8F614710127015027952C3F66
:10721000C8F64227499309B1047110274F731150E2
:1072200027952C3FA8F64695469519B1147179F02B
:107230000127015027952C3F98F66B5A60F3315087
:1072400009B1B0F600C011E01CBB002717C03B50CD
:107250003195C31BD04011E01CBB0881033CF9F001
:107260000B34E9F020911E011981110F1213EDCF9B
:10727000093651F10D3211F0013E39F70093250125
:107280003F915F914F911F910F912F916F91CCB3CF
:10729000C0FD67CFDF91CF91CFBFCF9118952091DF
:1072A0002501222369F310912301112339F534308C
:1072B0003AF13093230120931F01109120013BE00C
:1072C000311B309320011CC0009123010130B4F424
:1072D0000AE53091010134FD14C000930101C3E1BE
:1072E000D1E013C0052710E000C000000BB91AC0A0
:1072F000052710E0221F1DC010E021C04AE502C092
:1073000032ED432FC4E1D0E032E01AB114615C9A4F
:107310000BB11AB954E120E865E320FF05270BB94A
:10732000279517951C3FF0F66695B8F7B1F720FF43
:1073300005270BB9279517951C3FD0F6279517956C
:1073400017FF052700001C3F0BB9B0F629913A95AD
:1073500019F70B7E10912401110FC651D0400BB9C3
:1073600011F010931E0111E01CBB00611AB11B7ECD
:10737000402F4B7E54E05A95F1F70BB91AB94BB92F
:107380007FCFFC013381932F4481842F22812033CE
:1073900039F44370E42FF0E0EE5FFE4F80810895F2
:1073A000283529F431110EC0E1E0F0E006C02035A7
:1073B00099F431110CC0E0E0F0E089E080935700CF
:1073C00084910895383019F5E3E0F0E0F6CF3830D5
:1073D000F1F4E2E0F0E0F1CF203221F4FC01EE0F15
:1073E000FF1F06C0283231F4FC01EE0FFF1F31965B
:1073F00084910895203A09F42CC2203C19F4658147
:1074000030D205C02F3F19F481EF8093110180E045
:1074100008951AB880E88BB981E085BF82E085BF06
:10742000E0E0F1E7A89531978040E1F780913D01D8
:10743000877F21F480913E01882381F04F9B0EC00D
:10744000F894549A1BB81DBA1092690081E085BF68
:1074500015BEE0910A01F0910B0109958EEF809322
:10746000110114BE88E10FB6F89480936000109269
:1074700060000FBE80916900826080936900E89A85
:10748000549A8CE0E0E0F5E3A89531978040E1F76D
:107490005498789480912301835087FD46C1909140
:1074A0002001CCE0D0E0C91BD109C95DDE4F90912D
:1074B0001F019D3209F0B9C0883009F034C183EC56
:1074C000809313018AE58093010110921201488193
:1074D000842F807639818823B9F186E091E09093FA
:1074E000220180932101333031F4CE014ADF8093B1
:1074F000090124E090C0353019F13A3009F18CEFE0
:10750000830F863098F48A819B8190931001809339
:107510000F013930B9F08E8180930E018D81827018
:1075200080930D0130930C012FEF6FC080911101FA
:10753000323011F48E7F01C081608093110102C04E
:1075400021E069C020E067C08A8110921C013111DE
:1075500006C010921D018CE191E022E050C0353050
:1075600019F4809324013DC03630A9F59B819130F8
:1075700019F488E990E704C0923041F486E890E776
:10758000909322018093210122E121C09330F1F4F4
:10759000811108C084ED90E790932201809321012E
:1075A00024E015C0813041F488EB90E790932201EC
:1075B000809321012CE10BC0823041F48AEA90E7EC
:1075C00090932201809321012EE001C020E080E40D
:1075D0008093120118C0383079F0393031F480933B
:1075E00026018CE191E020E00AC021E03A3009F068
:1075F00020E08CE191E003C086E291E021E09093ED
:107600002201809321012F3F31F447FD2E8180E834
:107610008093120107C08F81811104C08E8182176F
:1076200008F4282F209300017EC09091120197FF4B
:107630007AC090910E01E82E981708F4E92E9E1951
:1076400090930E01DD24D3949111D12CF12CFE14D2
:1076500008F066C020910C0180910F0190911001FB
:10766000273078F08E010F5F1F4F68819C012F5FDC
:107670003F4F3093100120930F01F3D0F394E801B2
:10768000E6CF8115904708F04CC0F394F394F8943A
:10769000E0910F01F09110018991999121E00C0185
:1076A00020935700E8951124789480910F019091D0
:1076B000100102969093100180930F018F77992704
:1076C000892B59F0DD2009F4C2CFFE1408F4BFCF96
:1076D00080910D01882309F4BACFF894E0910F014D
:1076E000F0911001329783E080935700E8957894E9
:1076F00007B600FCFDCFF894E0910F01F091100166
:10770000329785E080935700E895789407B600FC9F
:10771000FDCFF89481E180935700E895789497CF56
:10772000D11010920001109223018091010184FF79
:107730006CC0809100018F3F09F467C0F82E89303A
:1077400010F028E0F22E8F19809300018091130130
:1077500098E8892780931301FF2009F449C080919C
:10776000120187FF27C080910E018F1508F4F82EB3
:107770008F1980930E01E0900C01C4E1D1E084E107
:1077800091E0FC2FF81BFF1598F500910F01109167
:10779000100186E08E1518F4C8015BD002C0F80114
:1077A0008491888321960F5F1F4F109310010093DF
:1077B0000F01E5CFE0912101F091220186FF0BC07E
:1077C00084E191E0DC0124912D9331962F2D280F37
:1077D0002A13F9CF09C084E191E0DC0121912D93B6
:1077E0002F2D280F2A13FACFF0932201E0932101C5
:1077F0006F2D84E191E0ADDC84E08F0D8C3019F0C9
:107800009FEF909300018093010184E199B19471FD
:1078100031F48150D9F71092240110921E01809109
:107820001101803130F04F9B0FC0809111018051C8
:1078300009C04F9909C080911101823028F08091D0
:10784000110182508093110180911101811122CE8A
:10785000F7CDF999FECF92BD81BDF89A992780B5F1
:107860000895262FF999FECF1FBA92BD81BD20BD84
:107870000FB6F894FA9AF99A0FBE01960895F89403
:02788000FFCF38
:06788200FF5A1E950F00E5
:040000030000700089
:00000001FF
